:100000000C945D000C9485000C9485000C94850084
:100010000C9485000C9485000C9485000C9485004C
:100020000C9485000C9485000C9485000C9485003C
:100030000C9485000C9485000C9485000C9485002C
:100040000C9444020C9485000C94B4020C948E021F
:100050000C9485000C9485000C9485000C9485000C
:100060000C9485000C9485000000000024002700FB
:100070002A0000000000250028002B0004040404CE
:100080000404040402020202020203030303030342
:10009000010204081020408001020408102001021F
:1000A00004081020000000080002010000030407FB
:1000B00000000000000000007E0411241FBECFEFEE
:1000C000D8E0DEBFCDBF11E0A0E0B1E0EAEFF9E09B
:1000D00002C005900D92A631B107D9F721E0A6E143
:1000E000B1E001C01D92A23DB207E1F710E0CDE5FD
:1000F000D0E004C02197FE010E94F504CC35D10761
:10010000C9F70E94E6020C94FB040C940000E1EB9A
:10011000F0E02491EDE9F0E09491E9E8F0E0E49179
:10012000EE23C9F0222339F0233001F1A8F4213065
:1001300019F1223029F1F0E0EE0FFF1FEE58FF4FCA
:10014000A591B4912FB7F894EC91811126C09095A8
:100150009E239C932FBF08952730A9F02830C9F023
:10016000243049F7209180002F7D03C0209180002A
:100170002F7720938000DFCF24B52F7724BDDBCFEE
:1001800024B52F7DFBCF2091B0002F772093B000B6
:10019000D2CF2091B0002F7DF9CF9E2BDACF3FB781
:1001A000F8948091CE019091CF01A091D001B091AF
:1001B000D10126B5A89B05C02F3F19F00196A11DBE
:1001C000B11D3FBFBA2FA92F982F8827BC01CD01A1
:1001D000620F711D811D911D42E0660F771F881F00
:1001E000991F4A95D1F70895AF92BF92CF92DF92AF
:1001F000EF92FF920F931F93CF93DF936C017B01DC
:100200008B01040F151FEB015E01AE18BF08C0176C
:10021000D10759F06991D601ED91FC910190F081DF
:10022000E02DC6010995892B79F7C501DF91CF91A2
:100230001F910F91FF90EF90DF90CF90BF90AF9004
:100240000895FC01538D448D252F30E0842F90E0DC
:10025000821B930B541710F0CF96089501970895C1
:10026000FC01918D828D981761F0A28DAE0FBF2F8A
:10027000B11D5D968C91928D9F5F9F73928F90E0E0
:1002800008958FEF9FEF0895FC01918D828D98174F
:1002900031F0828DE80FF11D858D90E008958FEF8C
:1002A0009FEF0895FC01918D228D892F90E0805C55
:1002B0009F4F821B91098F73992708958CE191E0DC
:1002C0000E94520121E0892B09F420E0822F089539
:1002D00080E090E0892B29F00E945E0181110C944E
:1002E00000000895FC01A48DA80FB92FB11DA35AD9
:1002F000BF4F2C91848D90E001968F739927848F46
:10030000A689B7892C93A089B1898C918370806468
:100310008C93938D848D981306C00288F389E02D09
:1003200080818F7D80830895EF92FF920F931F93BA
:10033000CF93DF93EC0181E0888F9B8D8C8D981398
:100340001AC0E889F989808185FF15C09FB7F894A4
:10035000EE89FF896083E889F989808183708064F0
:1003600080839FBF81E090E0DF91CF911F910F913B
:10037000FF90EF900895F62E0B8D10E00F5F1F4F4A
:100380000F731127E02E8C8D8E110CC00FB607FC59
:10039000FACFE889F989808185FFF5CFCE010E94E7
:1003A0007201F1CFEB8DEC0FFD2FF11DE35AFF4FE2
:1003B000F0829FB7F8940B8FEA89FB898081806275
:1003C000CFCFCF93DF93EC01888D8823B9F0AA8932
:1003D000BB89E889F9898C9185FD03C0808186FD00
:1003E0000DC00FB607FCF7CF8C9185FFF2CF80814F
:1003F00085FFEDCFCE010E947201E9CFDF91CF9151
:100400000895CF92DF92EF92FF920F931F93009186
:1004100018011091190120911A0130911B016B01F3
:100420007C01C01AD10AE20AF30A8A01550F220B95
:10043000330BC016D106E206F306B8F0609318013C
:100440007093190180931A0190931B0180911601FA
:1004500090911701892B81F481E00E94870081E04F
:1004600090E090931701809316011F910F91FF90D8
:10047000EF90DF90CF90089580E00E948700109267
:10048000170110921601F1CF1F920F920FB60F9223
:1004900011242F933F938F939F93AF93BF9380919A
:1004A000CA019091CB01A091CC01B091CD013091C6
:1004B000C90123E0230F2D3758F50196A11DB11D69
:1004C0002093C9018093CA019093CB01A093CC01E2
:1004D000B093CD018091CE019091CF01A091D00138
:1004E000B091D1010196A11DB11D8093CE019093D1
:1004F000CF01A093D001B093D101BF91AF919F9153
:100500008F913F912F910F900FBE0F901F901895D4
:1005100026E8230F0296A11DB11DD2CF1F920F9284
:100520000FB60F9211242F933F934F935F936F93C6
:100530007F938F939F93AF93BF93EF93FF938CE140
:1005400091E00E947201FF91EF91BF91AF919F9155
:100550008F917F916F915F914F913F912F910F906C
:100560000FBE0F901F9018951F920F920FB60F920B
:1005700011242F938F939F93EF93FF93E0912C017E
:10058000F0912D018081E0913201F091330182FDE3
:100590001BC09081809135018F5F8F732091360150
:1005A000821741F0E0913501F0E0E45EFE4F958F57
:1005B00080933501FF91EF919F918F912F910F9033
:1005C0000FBE0F901F9018958081F4CFCF93DF93CB
:1005D000CDB7DEB7A1970FB6F894DEBF0FBECDBF83
:1005E000789484B5826084BD84B5816084BD85B50E
:1005F000826085BD85B5816085BD80916E0081601A
:1006000080936E00109281008091810082608093BF
:1006100081008091810081608093810080918000C1
:100620008160809380008091B10084608093B100EC
:100630008091B00081608093B00080917A008460E6
:1006400080937A0080917A00826080937A00809112
:100650007A00816080937A0080917A00806880932C
:100660007A001092C100EDE9F0E02491E9E8F0E0B1
:100670008491882399F090E0880F991FFC01E85934
:10068000FF4FA591B491FC01EE58FF4F85919491D5
:100690008FB7F894EC91E22BEC938FBFE0912C0193
:1006A000F0912D0182E08083E0912801F0912901F1
:1006B0001082E0912A01F0912B018FEC808310923F
:1006C0003401E0913001F091310186E08083E091C6
:1006D0002E01F0912F01808180618083E0912E01B5
:1006E000F0912F01808188608083E0912E01F0914C
:1006F0002F01808180688083E0912E01F0912F018D
:1007000080818F7D80831092BA011092B90110927E
:10071000BC011092BB011092BE011092BD0110925B
:10072000C0011092BF011092C2011092C10135E0C8
:10073000E32EF12C4AE0842E912CA12CB12C50E018
:10074000C52E50E0D52E8091C3019091C401880F31
:10075000991FFC01E754FE4F2091C5013091C6015D
:1007600040815181241B350B3093C6012093C50174
:1007700020E420937C0020917A00206420937A006A
:1007800020917A0026FDFCCF2091780030917900ED
:1007900087549E4FFC01318320832091C301309107
:1007A000C401F901EE0FFF1FE754FE4F80819181D4
:1007B0004091C5015091C601840F951F9093C601C9
:1007C0008093C5012F5F3F4F253031050CF07BC072
:1007D0003093C4012093C301B7010E94AB0470930E
:1007E000C8016093C7012B01072E000C660877082B
:1007F00077FF6EC06DE28CE191E00E9494012227A8
:100800003327A901241935094609570919A28E0170
:100810000F5D1F4FCA01B901A50194010E94BF04D9
:10082000605DF80162938F01211531054105510585
:1008300089F70115110561F001900020E9F7319762
:10084000AF01401B510BB8018CE191E00E94F40014
:1008500042E050E062E171E08CE191E00E94F4003E
:100860000E94CF001B012C010E94CF006219730966
:1008700084099509683E734081059105A8F32FB757
:10088000F8946091CA017091CB018091CC01909154
:10089000CD012FBF2091C7013091C80146EA50E039
:1008A0002436310514F048EE53E00E940102C114D1
:1008B000D10409F448CF0E945E01882309F443CF94
:1008C0000E94000040CF1092C4011092C30184CF57
:1008D000A301920119A28E010F5D1F4FCA01B90138
:1008E000A50194010E94BF04605DF80162938F012D
:1008F000211531054105510589F79BCFECE1F1E068
:100900001382128288EE93E0A0E0B0E084839583A6
:10091000A683B78384E091E09183808385EC90E0A7
:100920009587848784EC90E09787868780EC90E0B9
:10093000918B808B81EC90E0938B828B82EC90E0AA
:10094000958B848B86EC90E0978B868B118E128E24
:10095000138E148E089597FB072E16F4009407D07B
:1009600077FD09D00E94E10407FC05D03EF4909584
:1009700081959F4F0895709561957F4F0895A1E2ED
:100980001A2EAA1BBB1BFD010DC0AA1FBB1FEE1F09
:10099000FF1FA217B307E407F50720F0A21BB30B54
:1009A000E40BF50B661F771F881F991F1A9469F7D0
:1009B00060957095809590959B01AC01BD01CF012C
:1009C0000895AA1BBB1B51E107C0AA1FBB1FA61796
:1009D000B70710F0A61BB70B881F991F5A95A9F7E8
:1009E00080959095BC01CD010895EE0FFF1F0590F5
:0A09F000F491E02D0994F894FFCF74
:1009FA00000000009401F4002101E10152013001DC
:060A0A0044010D0A00008A
:00000001FF
