:100000000C9462000C948A000C948A000C948A0070
:100010000C948A000C948A000C948A000C948A0038
:100020000C948A000C948A000C948A000C948A0028
:100030000C948A000C948A000C948A000C948A0018
:100040000C9463020C948A000C94D3020C94AD02BD
:100050000C948A000C948A000C948A000C948A00F8
:100060000C948A000C948A000000000024002700F1
:100070002A0000000000250028002B0000000000DE
:1000800023002600290004040404040404040202DA
:100090000202020203030303030301020408102007
:1000A0004080010204081020010204081020000012
:1000B0000008000201000003040700000000000027
:1000C0000000EE0411241FBECFEFD8E0DEBFCDBF8D
:1000D00011E0A0E0B1E0EAE8FAE002C005900D927C
:1000E000A833B107D9F721E0A8E3B1E001C01D9220
:1000F000A03FB207E1F710E0C2E6D0E004C02197CC
:10010000FE010E943D05C136D107C9F70E940503D3
:100110000C9443050C940000833081F028F4813066
:1001200099F08230A9F008958730A9F08830C9F09D
:100130008430B1F4809180008F7D03C08091800075
:100140008F7780938000089584B58F7784BD08955C
:1001500084B58F7DFBCF8091B0008F778093B00006
:1001600008958091B0008F7DF9CFCF93DF93282F32
:1001700030E0F901E255FF4F8491F901E656FF4F57
:10018000D491F901EA57FF4FC491CC23A1F081111A
:100190000E948C00EC2FF0E0EE0FFF1FE458FF4FA1
:1001A000A591B491EC91ED2381E090E009F480E019
:1001B000DF91CF91089580E090E0FACF1F93CF9325
:1001C000DF93282F30E0F901E255FF4F8491F901C8
:1001D000E656FF4FD491F901EA57FF4FC491CC2363
:1001E000A9F0162F81110E948C00EC2FF0E0EE0F89
:1001F000FF1FEE58FF4FA591B4918FB7F894EC9183
:10020000111108C0D095DE23DC938FBFDF91CF9111
:100210001F910895DE2BF8CFCF93DF9390E0FC0180
:10022000E656FF4F24918A579F4FFC018491882303
:10023000D1F090E0880F991FFC01E859FF4FA5917C
:10024000B491FC01EE58FF4FC591D491623071F426
:100250009FB7F8943C91822F809583238C93E881FB
:100260002E2B28839FBFDF91CF9108958FB7F894ED
:10027000EC912E2B2C938FBFF6CF2FB7F894609173
:100280004F017091500180915101909152012FBF07
:100290000895AF92BF92CF92DF92EF92FF920F93A9
:1002A0001F93CF93DF936C017B018B01040F151F0C
:1002B000EB015E01AE18BF08C017D10759F0699174
:1002C000D601ED91FC910190F081E02DC6010995D8
:1002D000892B79F7C501DF91CF911F910F91FF9085
:1002E000EF90DF90CF90BF90AF900895FC01538DB9
:1002F000448D252F30E0842F90E0821B930B541700
:1003000010F0CF96089501970895FC01918D828D8C
:10031000981761F0A28DAE0FBF2FB11D5D968C9125
:10032000928D9F5F9F73928F90E008958FEF9FEF64
:100330000895FC01918D828D981731F0828DE80F20
:10034000F11D858D90E008958FEF9FEF0895FC01DA
:10035000918D228D892F90E0805C9F4F821B9109A7
:100360008F739927089583E591E00E94A70121E00A
:10037000892B09F420E0822F089580E090E0892BFA
:1003800029F00E94B30181110C9400000895FC0132
:10039000A48DA80FB92FB11DA35ABF4F2C91848DE6
:1003A00090E001968F739927848FA689B7892C9343
:1003B000A089B1898C91837080648C93938D848D96
:1003C000981306C00288F389E02D80818F7D808399
:1003D0000895EF92FF920F931F93CF93DF93EC0159
:1003E00081E0888F9B8D8C8D98131AC0E889F989DC
:1003F000808185FF15C09FB7F894EE89FF896083DF
:10040000E889F98980818370806480839FBF81E05F
:1004100090E0DF91CF911F910F91FF90EF900895A1
:10042000F62E0B8D10E00F5F1F4F0F731127E02E7C
:100430008C8D8E110CC00FB607FCFACFE889F989B4
:10044000808185FFF5CFCE010E94C701F1CFEB8DF2
:10045000EC0FFD2FF11DE35AFF4FF0829FB7F89488
:100460000B8FEA89FB8980818062CFCFCF93DF93A6
:10047000EC01888D8823B9F0AA89BB89E889F989BC
:100480008C9185FD03C0808186FD0DC00FB607FCF1
:10049000F7CF8C9185FFF2CF808185FFEDCFCE0124
:1004A0000E94C701E9CFDF91CF910895FC0101902F
:1004B0000020E9F73197AF01481B590BBC0183E5D8
:1004C00091E00C9449011F920F920FB60F921124E4
:1004D0002F933F938F939F93AF93BF9380914F013F
:1004E00090915001A0915101B091520130914E0173
:1004F00023E0230F2D3758F50196A11DB11D209340
:100500004E0180934F0190935001A0935101B093FD
:10051000520180914A0190914B01A0914C01B09100
:100520004D010196A11DB11D80934A0190934B018D
:10053000A0934C01B0934D01BF91AF919F918F91CA
:100540003F912F910F900FBE0F901F90189526E8A6
:10055000230F0296A11DB11DD2CF1F920F920FB68D
:100560000F9211242F933F934F935F936F937F9339
:100570008F939F93AF93BF93EF93FF9383E591E0A6
:100580000E94C701FF91EF91BF91AF919F918F9111
:100590007F916F915F914F913F912F910F900FBE7F
:1005A0000F901F9018951F920F920FB60F92112463
:1005B0002F938F939F93EF93FF93E0916301F091BB
:1005C00064018081E0916901F0916A0182FD1BC0A4
:1005D000908180916C018F5F8F7320916D018217E4
:1005E00041F0E0916C01F0E0ED5AFE4F958F809361
:1005F0006C01FF91EF919F918F912F910F900FBE02
:100600000F901F9018958081F4CFCF93DF93CDB7D3
:10061000DEB7A1970FB6F894DEBF0FBECDBF7894BA
:1006200084B5826084BD84B5816084BD85B58260F7
:1006300085BD85B5816085BD80916E0081608093A8
:100640006E00109281008091810082608093810011
:100650008091810081608093810080918000816021
:10066000809380008091B10084608093B10080917C
:10067000B00081608093B00080917A0084608093A4
:100680007A0080917A00826080937A0080917A006B
:10069000816080937A0080917A00806880937A00EC
:1006A0001092C10061E08DE00E940C0161E08CE0DD
:1006B0000E940C0161E08BE00E940C0162E082E08C
:1006C0000E940C01E0916301F091640182E080835B
:1006D000E0915F01F09160011082E0916101F09181
:1006E00062018FEC808310926B01E0916701F091C1
:1006F000680186E08083E0916501F0916601808168
:1007000080618083E0916501F0916601808188605D
:100710008083E0916501F09166018081806880832B
:10072000E0916501F091660180818F7D80832224B4
:100730002394312C9AE0492E512C612C712C82E0AB
:100740000E94B5008C010E943D016B017C010130CB
:10075000110509F079C080903A0190903B01A0907A
:100760003C01B0903D018091380190913901892B75
:10077000E9F40E943D0160933A0170933B0180933C
:100780003C0190933D0182E191E00E94560281E29A
:1007900091E00E9456028091480190914901980190
:1007A000281B390B3093490120934801C818D908F8
:1007B000EA08FB0890EDC91697E0D906E104F104B8
:1007C00008F442C084E291E00E94560281E291E086
:1007D0000E94560280914601909147016101C81A1A
:1007E000D90AD0924701C09246010D2C000CEE08A8
:1007F000FF08F7FE90C06DE283E591E00E94E901F9
:1008000022273327A9012C193D094E095F0919A296
:10081000CE0181967C01CA01B901A30192010E9417
:100820001B05605DF70162937F01211531054105CC
:10083000510589F7E114F10419F0C7010E9456022D
:1008400081E291E00E945602109339010093380131
:100850000E943D0100913E0110913F012091400115
:10086000309141016B017C01C01AD10AE20AF30AFE
:1008700097018601023513402105310590F0609300
:100880003E0170933F0180934001909341018CE0C1
:100890000E94B50061E0892B09F060E08CE00E94C5
:1008A000DE008091480190914901009709F049C00C
:1008B0008091460190914701009709F084C00E9401
:1008C0003D0100914201109143012091440130917A
:1008D00045016B017C01C01AD10AE20AF30A9701B3
:1008E0008601043F11402105310590F060934201DB
:1008F0007093430180934401909345018DE00E94E1
:10090000B50060E0892B09F461E08DE00E94DE0013
:1009100060E08BE049C0A701960119A2CE01819643
:100920007C01CA01B901A30192010E941B05605D0F
:10093000F70162937F01211531054105510589F7C2
:1009400079CF019799F580914601909147010097E1
:10095000E9F50E943D01009142011091430120916F
:100960004401309145016B017C01C01AD10AE20AB1
:10097000F30A97018601043F11402105310590F0EB
:100980006093420170934301809344019093450129
:100990008BE00E94B50061E0892B09F060E08BE0FC
:1009A0000E94DE0060E08DE00E94DE0080E090E0CA
:1009B000892B09F4C4CE0E94B301882309F4BFCE69
:1009C0000E940000BCCE019789F79ECF019771F776
:1009D00060E08DE00E94DE0061E09BCFE3E5F1E0A6
:1009E0001382128288EE93E0A0E0B0E084839583C6
:1009F000A683B78384E091E09183808385EC90E0C7
:100A00009587848784EC90E09787868780EC90E0D8
:100A1000918B808B81EC90E0938B828B82EC90E0C9
:100A2000958B848B86EC90E0978B868B118E128E43
:100A3000138E148E0895A1E21A2EAA1BBB1BFD0172
:100A40000DC0AA1FBB1FEE1FFF1FA217B307E407AD
:100A5000F50720F0A21BB30BE40BF50B661F771F05
:100A6000881F991F1A9469F76095709580959095E5
:100A70009B01AC01BD01CF010895EE0FFF1F059052
:0A0A8000F491E02D0994F894FFCFE3
:100A8A0000000000E901490176013602A70185014B
:100A9A009901427574746F6E205072657373656440
:100AAA00000D0A00427574746F6E204C6F6E6720D9
:080ABA0050726573736564005E
:00000001FF
